{
  "_format": "hh-sol-artifact-1",
  "contractName": "EventEmitter",
  "sourceName": "contracts/event/EventEmitter.sol",
  "abi": [
    {
      "inputs": [
        {
          "internalType": "contract RoleStore",
          "name": "_roleStore",
          "type": "address"
        }
      ],
      "stateMutability": "nonpayable",
      "type": "constructor"
    },
    {
      "inputs": [
        {
          "internalType": "address",
          "name": "msgSender",
          "type": "address"
        },
        {
          "internalType": "string",
          "name": "role",
          "type": "string"
        }
      ],
      "name": "Unauthorized",
      "type": "error"
    },
    {
      "anonymous": false,
      "inputs": [
        {
          "indexed": true,
          "internalType": "address",
          "name": "pool",
          "type": "address"
        },
        {
          "indexed": true,
          "internalType": "address",
          "name": "borrower",
          "type": "address"
        },
        {
          "indexed": false,
          "internalType": "uint256",
          "name": "amount",
          "type": "uint256"
        },
        {
          "indexed": false,
          "internalType": "uint256",
          "name": "borrowRate",
          "type": "uint256"
        }
      ],
      "name": "Borrow",
      "type": "event"
    },
    {
      "anonymous": false,
      "inputs": [
        {
          "indexed": true,
          "internalType": "address",
          "name": "poolUsd",
          "type": "address"
        },
        {
          "indexed": true,
          "internalType": "address",
          "name": "account",
          "type": "address"
        },
        {
          "indexed": false,
          "internalType": "uint256",
          "name": "amountUsdStartClose",
          "type": "uint256"
        },
        {
          "indexed": false,
          "internalType": "uint256",
          "name": "amountUsdAfterRepayAndSellCollateral",
          "type": "uint256"
        },
        {
          "indexed": false,
          "internalType": "uint256",
          "name": "amountUsdAfterBuyCollateralAndRepay",
          "type": "uint256"
        }
      ],
      "name": "Close",
      "type": "event"
    },
    {
      "anonymous": false,
      "inputs": [
        {
          "indexed": true,
          "internalType": "address",
          "name": "pool",
          "type": "address"
        },
        {
          "indexed": true,
          "internalType": "address",
          "name": "poolUsd",
          "type": "address"
        },
        {
          "indexed": true,
          "internalType": "address",
          "name": "account",
          "type": "address"
        },
        {
          "indexed": false,
          "internalType": "uint256",
          "name": "collateral",
          "type": "uint256"
        },
        {
          "indexed": false,
          "internalType": "uint256",
          "name": "debt",
          "type": "uint256"
        },
        {
          "indexed": false,
          "internalType": "uint256",
          "name": "remainUsd",
          "type": "uint256"
        }
      ],
      "name": "ClosePosition",
      "type": "event"
    },
    {
      "anonymous": false,
      "inputs": [
        {
          "indexed": true,
          "internalType": "address",
          "name": "pool",
          "type": "address"
        },
        {
          "indexed": true,
          "internalType": "address",
          "name": "depositer",
          "type": "address"
        },
        {
          "indexed": false,
          "internalType": "uint256",
          "name": "amount",
          "type": "uint256"
        }
      ],
      "name": "Deposit",
      "type": "event"
    },
    {
      "anonymous": false,
      "inputs": [
        {
          "indexed": true,
          "internalType": "address",
          "name": "liquidator",
          "type": "address"
        },
        {
          "indexed": true,
          "internalType": "address",
          "name": "account",
          "type": "address"
        },
        {
          "indexed": false,
          "internalType": "uint256",
          "name": "healthFactor",
          "type": "uint256"
        },
        {
          "indexed": false,
          "internalType": "uint256",
          "name": "healthFactorLiquidationThreshold",
          "type": "uint256"
        },
        {
          "indexed": false,
          "internalType": "uint256",
          "name": "totalCollateralUsd",
          "type": "uint256"
        },
        {
          "indexed": false,
          "internalType": "uint256",
          "name": "totalDebtUsd",
          "type": "uint256"
        }
      ],
      "name": "Liquidation",
      "type": "event"
    },
    {
      "anonymous": false,
      "inputs": [
        {
          "indexed": true,
          "internalType": "address",
          "name": "pool",
          "type": "address"
        },
        {
          "indexed": false,
          "internalType": "uint256",
          "name": "liquidityRate",
          "type": "uint256"
        },
        {
          "indexed": false,
          "internalType": "uint256",
          "name": "borrowRate",
          "type": "uint256"
        },
        {
          "indexed": false,
          "internalType": "uint256",
          "name": "liquidityIndex",
          "type": "uint256"
        },
        {
          "indexed": false,
          "internalType": "uint256",
          "name": "borrowIndex",
          "type": "uint256"
        }
      ],
      "name": "PoolUpdated",
      "type": "event"
    },
    {
      "anonymous": false,
      "inputs": [
        {
          "indexed": true,
          "internalType": "address",
          "name": "liquidator",
          "type": "address"
        },
        {
          "indexed": true,
          "internalType": "address",
          "name": "pool",
          "type": "address"
        },
        {
          "indexed": true,
          "internalType": "address",
          "name": "account",
          "type": "address"
        },
        {
          "indexed": false,
          "internalType": "uint256",
          "name": "collateral",
          "type": "uint256"
        },
        {
          "indexed": false,
          "internalType": "uint256",
          "name": "debt",
          "type": "uint256"
        },
        {
          "indexed": false,
          "internalType": "uint256",
          "name": "price",
          "type": "uint256"
        }
      ],
      "name": "PositionLiquidation",
      "type": "event"
    },
    {
      "anonymous": false,
      "inputs": [
        {
          "indexed": true,
          "internalType": "address",
          "name": "pool",
          "type": "address"
        },
        {
          "indexed": true,
          "internalType": "address",
          "name": "redeemer",
          "type": "address"
        },
        {
          "indexed": true,
          "internalType": "address",
          "name": "to",
          "type": "address"
        },
        {
          "indexed": false,
          "internalType": "uint256",
          "name": "amount",
          "type": "uint256"
        }
      ],
      "name": "Redeem",
      "type": "event"
    },
    {
      "anonymous": false,
      "inputs": [
        {
          "indexed": true,
          "internalType": "address",
          "name": "pool",
          "type": "address"
        },
        {
          "indexed": true,
          "internalType": "address",
          "name": "repayer",
          "type": "address"
        },
        {
          "indexed": false,
          "internalType": "uint256",
          "name": "amount",
          "type": "uint256"
        },
        {
          "indexed": false,
          "internalType": "bool",
          "name": "useCollateral",
          "type": "bool"
        }
      ],
      "name": "Repay",
      "type": "event"
    },
    {
      "anonymous": false,
      "inputs": [
        {
          "indexed": true,
          "internalType": "address",
          "name": "pool",
          "type": "address"
        },
        {
          "indexed": true,
          "internalType": "address",
          "name": "supplier",
          "type": "address"
        },
        {
          "indexed": true,
          "internalType": "address",
          "name": "to",
          "type": "address"
        },
        {
          "indexed": false,
          "internalType": "uint256",
          "name": "amount",
          "type": "uint256"
        }
      ],
      "name": "Supply",
      "type": "event"
    },
    {
      "anonymous": false,
      "inputs": [
        {
          "indexed": true,
          "internalType": "address",
          "name": "underlyingAssetIn",
          "type": "address"
        },
        {
          "indexed": true,
          "internalType": "address",
          "name": "underlyingAssetOut",
          "type": "address"
        },
        {
          "indexed": true,
          "internalType": "address",
          "name": "account",
          "type": "address"
        },
        {
          "indexed": false,
          "internalType": "uint256",
          "name": "amountIn",
          "type": "uint256"
        },
        {
          "indexed": false,
          "internalType": "uint256",
          "name": "amountOut",
          "type": "uint256"
        }
      ],
      "name": "Swap",
      "type": "event"
    },
    {
      "anonymous": false,
      "inputs": [
        {
          "indexed": true,
          "internalType": "address",
          "name": "pool",
          "type": "address"
        },
        {
          "indexed": true,
          "internalType": "address",
          "name": "withdrawer",
          "type": "address"
        },
        {
          "indexed": true,
          "internalType": "address",
          "name": "to",
          "type": "address"
        },
        {
          "indexed": false,
          "internalType": "uint256",
          "name": "amount",
          "type": "uint256"
        }
      ],
      "name": "Withdraw",
      "type": "event"
    },
    {
      "inputs": [
        {
          "internalType": "address",
          "name": "underlyingAsset",
          "type": "address"
        },
        {
          "internalType": "address",
          "name": "account",
          "type": "address"
        },
        {
          "internalType": "uint256",
          "name": "borrowAmount",
          "type": "uint256"
        },
        {
          "internalType": "uint256",
          "name": "borrowRate",
          "type": "uint256"
        }
      ],
      "name": "emitBorrow",
      "outputs": [],
      "stateMutability": "nonpayable",
      "type": "function"
    },
    {
      "inputs": [
        {
          "internalType": "address",
          "name": "underlyingAssetUsd",
          "type": "address"
        },
        {
          "internalType": "address",
          "name": "account",
          "type": "address"
        },
        {
          "internalType": "uint256",
          "name": "amountUsdStartClose",
          "type": "uint256"
        },
        {
          "internalType": "uint256",
          "name": "amountUsdAfterRepayAndSellCollateral",
          "type": "uint256"
        },
        {
          "internalType": "uint256",
          "name": "amountUsdAfterBuyCollateralAndRepay",
          "type": "uint256"
        }
      ],
      "name": "emitClose",
      "outputs": [],
      "stateMutability": "nonpayable",
      "type": "function"
    },
    {
      "inputs": [
        {
          "internalType": "address",
          "name": "underlyingAsset",
          "type": "address"
        },
        {
          "internalType": "address",
          "name": "underlyingAssetUsd",
          "type": "address"
        },
        {
          "internalType": "address",
          "name": "account",
          "type": "address"
        },
        {
          "internalType": "uint256",
          "name": "collateralAmount",
          "type": "uint256"
        },
        {
          "internalType": "uint256",
          "name": "debtAmount",
          "type": "uint256"
        },
        {
          "internalType": "uint256",
          "name": "remainAmountUsd",
          "type": "uint256"
        }
      ],
      "name": "emitClosePosition",
      "outputs": [],
      "stateMutability": "nonpayable",
      "type": "function"
    },
    {
      "inputs": [
        {
          "internalType": "address",
          "name": "underlyingAsset",
          "type": "address"
        },
        {
          "internalType": "address",
          "name": "account",
          "type": "address"
        },
        {
          "internalType": "uint256",
          "name": "depositAmount",
          "type": "uint256"
        }
      ],
      "name": "emitDeposit",
      "outputs": [],
      "stateMutability": "nonpayable",
      "type": "function"
    },
    {
      "inputs": [
        {
          "internalType": "address",
          "name": "liquidator",
          "type": "address"
        },
        {
          "internalType": "address",
          "name": "account",
          "type": "address"
        },
        {
          "internalType": "uint256",
          "name": "healthFactor",
          "type": "uint256"
        },
        {
          "internalType": "uint256",
          "name": "healthFactorLiquidationThreshold",
          "type": "uint256"
        },
        {
          "internalType": "uint256",
          "name": "totalCollateralUsd",
          "type": "uint256"
        },
        {
          "internalType": "uint256",
          "name": "totalDebtUsd",
          "type": "uint256"
        }
      ],
      "name": "emitLiquidation",
      "outputs": [],
      "stateMutability": "nonpayable",
      "type": "function"
    },
    {
      "inputs": [
        {
          "internalType": "address",
          "name": "underlyingAsset",
          "type": "address"
        },
        {
          "internalType": "uint256",
          "name": "liquidityRate",
          "type": "uint256"
        },
        {
          "internalType": "uint256",
          "name": "borrowRate",
          "type": "uint256"
        },
        {
          "internalType": "uint256",
          "name": "liquidityIndex",
          "type": "uint256"
        },
        {
          "internalType": "uint256",
          "name": "borrowIndex",
          "type": "uint256"
        }
      ],
      "name": "emitPoolUpdated",
      "outputs": [],
      "stateMutability": "nonpayable",
      "type": "function"
    },
    {
      "inputs": [
        {
          "internalType": "address",
          "name": "liquidator",
          "type": "address"
        },
        {
          "internalType": "address",
          "name": "underlyingAsset",
          "type": "address"
        },
        {
          "internalType": "address",
          "name": "account",
          "type": "address"
        },
        {
          "internalType": "uint256",
          "name": "collateral",
          "type": "uint256"
        },
        {
          "internalType": "uint256",
          "name": "debt",
          "type": "uint256"
        },
        {
          "internalType": "uint256",
          "name": "price",
          "type": "uint256"
        }
      ],
      "name": "emitPositionLiquidation",
      "outputs": [],
      "stateMutability": "nonpayable",
      "type": "function"
    },
    {
      "inputs": [
        {
          "internalType": "address",
          "name": "underlyingAsset",
          "type": "address"
        },
        {
          "internalType": "address",
          "name": "account",
          "type": "address"
        },
        {
          "internalType": "address",
          "name": "to",
          "type": "address"
        },
        {
          "internalType": "uint256",
          "name": "redeemAmount",
          "type": "uint256"
        }
      ],
      "name": "emitRedeem",
      "outputs": [],
      "stateMutability": "nonpayable",
      "type": "function"
    },
    {
      "inputs": [
        {
          "internalType": "address",
          "name": "underlyingAsset",
          "type": "address"
        },
        {
          "internalType": "address",
          "name": "repayer",
          "type": "address"
        },
        {
          "internalType": "uint256",
          "name": "repayAmount",
          "type": "uint256"
        },
        {
          "internalType": "bool",
          "name": "useCollateral",
          "type": "bool"
        }
      ],
      "name": "emitRepay",
      "outputs": [],
      "stateMutability": "nonpayable",
      "type": "function"
    },
    {
      "inputs": [
        {
          "internalType": "address",
          "name": "underlyingAsset",
          "type": "address"
        },
        {
          "internalType": "address",
          "name": "account",
          "type": "address"
        },
        {
          "internalType": "address",
          "name": "to",
          "type": "address"
        },
        {
          "internalType": "uint256",
          "name": "supplyAmount",
          "type": "uint256"
        }
      ],
      "name": "emitSupply",
      "outputs": [],
      "stateMutability": "nonpayable",
      "type": "function"
    },
    {
      "inputs": [
        {
          "internalType": "address",
          "name": "underlyingAssetIn",
          "type": "address"
        },
        {
          "internalType": "address",
          "name": "underlyingAssetOut",
          "type": "address"
        },
        {
          "internalType": "address",
          "name": "account",
          "type": "address"
        },
        {
          "internalType": "uint256",
          "name": "amountIn",
          "type": "uint256"
        },
        {
          "internalType": "uint256",
          "name": "amountOut",
          "type": "uint256"
        }
      ],
      "name": "emitSwap",
      "outputs": [],
      "stateMutability": "nonpayable",
      "type": "function"
    },
    {
      "inputs": [
        {
          "internalType": "address",
          "name": "underlyingAsset",
          "type": "address"
        },
        {
          "internalType": "address",
          "name": "account",
          "type": "address"
        },
        {
          "internalType": "address",
          "name": "to",
          "type": "address"
        },
        {
          "internalType": "uint256",
          "name": "withdrawAmount",
          "type": "uint256"
        }
      ],
      "name": "emitWithdraw",
      "outputs": [],
      "stateMutability": "nonpayable",
      "type": "function"
    },
    {
      "inputs": [],
      "name": "roleStore",
      "outputs": [
        {
          "internalType": "contract RoleStore",
          "name": "",
          "type": "address"
        }
      ],
      "stateMutability": "view",
      "type": "function"
    }
  ],
  "bytecode": "0x60a060405234801561001057600080fd5b50604051610c32380380610c3283398101604081905261002f91610040565b6001600160a01b0316608052610070565b60006020828403121561005257600080fd5b81516001600160a01b038116811461006957600080fd5b9392505050565b608051610ba06100926000396000818161010101526107460152610ba06000f3fe608060405234801561001057600080fd5b50600436106100cf5760003560e01c80639070fbf01161008c578063a250ab9a11610066578063a250ab9a146101b1578063bb0e0b2c146101c4578063d30597e2146101d7578063e764ac72146101ea57600080fd5b80639070fbf0146101785780639324595b1461018b57806394e0dd1d1461019e57600080fd5b8063054a90c5146100d4578063324ac765146100e95780634a4a7b04146100fc5780636c1456dd1461013f5780637c24dab7146101525780638b7711b414610165575b600080fd5b6100e76100e2366004610803565b6101fd565b005b6100e76100f7366004610862565b6102aa565b6101237f000000000000000000000000000000000000000000000000000000000000000081565b6040516001600160a01b03909116815260200160405180910390f35b6100e761014d366004610803565b610314565b6100e76101603660046108af565b610377565b6100e76101733660046108f1565b6103e3565b6100e761018636600461092d565b610447565b6100e7610199366004610982565b6104c0565b6100e76101ac3660046109cd565b61052f565b6100e76101bf366004610982565b6105a1565b6100e76101d2366004610982565b610602565b6100e76101e5366004610a22565b610663565b6100e76101f8366004610a75565b6106d1565b61024d60405160200161020f90610ac4565b604051602081830303815290604052805190602001206040518060400160405280600a81526020016921a7a72a2927a62622a960b11b81525061072a565b60408051848152602081018490529081018290526001600160a01b0380861691878216918916907fde74dcb4b9894d99afee49abaa5b8eeece8399422c403c5128b2958f0dd61805906060015b60405180910390a4505050505050565b6102bc60405160200161020f90610ac4565b60408051848152602081018490529081018290526001600160a01b0380861691908716907fb149470201600d81e1698a9d001d20f8d2a036d2c0f425436b65a154e95eb53a9060600160405180910390a35050505050565b61032660405160200161020f90610ac4565b60408051848152602081018490529081018290526001600160a01b0380861691878216918916907f48db052c40464beea286f6ca9e56f6c494dc12ae7f3faaf7f8f628841c976acd9060600161029a565b61038960405160200161020f90610ac4565b6040805185815260208101859052908101839052606081018290526001600160a01b038616907fc320a8529b15b851aaa68519919ac344e1caceaf4f47d15df6e58181dfec63199060800160405180910390a25050505050565b6103f560405160200161020f90610ac4565b816001600160a01b0316836001600160a01b03167f5548c837ab068cf56a2c2479df0882a4922fd203edb7517321831d95078c5f628360405161043a91815260200190565b60405180910390a3505050565b61045960405160200161020f90610ac4565b826001600160a01b0316846001600160a01b0316866001600160a01b03167fcd3829a3813dc3cdd188fd3d01dcf3268c16be2fdd2dd21d0665418816e4606285856040516104b1929190918252602082015260400190565b60405180910390a45050505050565b6104d260405160200161020f90610ac4565b816001600160a01b0316836001600160a01b0316856001600160a01b03167f4f7857497e115bb4e8acd8d9f7382eb4c159d874838d6368099523ab6ef9f6318460405161052191815260200190565b60405180910390a450505050565b61054160405160200161020f90610ac4565b6040805185815260208101859052908101839052606081018290526001600160a01b0380871691908816907fc70fd1eb40d7ae44a5425c09dece5a023b47277356e005b6caef1600cfc7334e9060800160405180910390a3505050505050565b6105b360405160200161020f90610ac4565b816001600160a01b0316836001600160a01b0316856001600160a01b03167f3115d1449a7b732c986cba18244e897a450f61e1bb8d589cd2e69e6c8924f9f78460405161052191815260200190565b61061460405160200161020f90610ac4565b816001600160a01b0316836001600160a01b0316856001600160a01b03167fee02732fab40ece8284c756220846dff4b8d32058b86b35b4f0459bf172fcef08460405161052191815260200190565b61067560405160200161020f90610ac4565b826001600160a01b0316846001600160a01b03167fc1561b330e73faa7d5d1ac03c968d8f359b0191ccdb9cc002cf7d8eb6ae038cb84846040516106c3929190918252602082015260400190565b60405180910390a350505050565b6106e360405160200161020f90610ac4565b6040805183815282151560208201526001600160a01b0380861692908716917f32b9f192f046502437b65280a1ff8a435327a7bb3986b85db4a5e61b44e5d3b391016106c3565b60405163ac4ab3fb60e01b8152336004820152602481018390527f00000000000000000000000000000000000000000000000000000000000000006001600160a01b03169063ac4ab3fb90604401602060405180830381865afa158015610795573d6000803e3d6000fd5b505050506040513d601f19601f820116820180604052508101906107b99190610ae8565b6107e357338160405163a35b150b60e01b81526004016107da929190610b0c565b60405180910390fd5b5050565b80356001600160a01b03811681146107fe57600080fd5b919050565b60008060008060008060c0878903121561081c57600080fd5b610825876107e7565b9550610833602088016107e7565b9450610841604088016107e7565b9350606087013592506080870135915060a087013590509295509295509295565b600080600080600060a0868803121561087a57600080fd5b610883866107e7565b9450610891602087016107e7565b94979496505050506040830135926060810135926080909101359150565b600080600080600060a086880312156108c757600080fd5b6108d0866107e7565b97602087013597506040870135966060810135965060800135945092505050565b60008060006060848603121561090657600080fd5b61090f846107e7565b925061091d602085016107e7565b9150604084013590509250925092565b600080600080600060a0868803121561094557600080fd5b61094e866107e7565b945061095c602087016107e7565b935061096a604087016107e7565b94979396509394606081013594506080013592915050565b6000806000806080858703121561099857600080fd5b6109a1856107e7565b93506109af602086016107e7565b92506109bd604086016107e7565b9396929550929360600135925050565b60008060008060008060c087890312156109e657600080fd5b6109ef876107e7565b95506109fd602088016107e7565b95989597505050506040840135936060810135936080820135935060a0909101359150565b60008060008060808587031215610a3857600080fd5b610a41856107e7565b9350610a4f602086016107e7565b93969395505050506040820135916060013590565b8015158114610a7257600080fd5b50565b60008060008060808587031215610a8b57600080fd5b610a94856107e7565b9350610aa2602086016107e7565b9250604085013591506060850135610ab981610a64565b939692955090935050565b6020808252600a908201526921a7a72a2927a62622a960b11b604082015260600190565b600060208284031215610afa57600080fd5b8151610b0581610a64565b9392505050565b60018060a01b038316815260006020604081840152835180604085015260005b81811015610b4857858101830151858201606001528201610b2c565b506000606082860101526060601f19601f83011685010192505050939250505056fea2646970667358221220b6cc548efa46f6bbf509cc8d014aaced2d16d6050a0fc9c7829ba7216dceeb9364736f6c63430008140033",
  "linkReferences": {},
  "deployedLinkReferences": {}
}