{
  "_format": "hh-sol-artifact-1",
  "contractName": "EventEmitter",
  "sourceName": "contracts/event/EventEmitter.sol",
  "abi": [
    {
      "inputs": [
        {
          "internalType": "contract RoleStore",
          "name": "_roleStore",
          "type": "address"
        }
      ],
      "stateMutability": "nonpayable",
      "type": "constructor"
    },
    {
      "inputs": [
        {
          "internalType": "address",
          "name": "msgSender",
          "type": "address"
        },
        {
          "internalType": "string",
          "name": "role",
          "type": "string"
        }
      ],
      "name": "Unauthorized",
      "type": "error"
    },
    {
      "anonymous": false,
      "inputs": [
        {
          "indexed": true,
          "internalType": "address",
          "name": "pool",
          "type": "address"
        },
        {
          "indexed": true,
          "internalType": "address",
          "name": "borrower",
          "type": "address"
        },
        {
          "indexed": false,
          "internalType": "uint256",
          "name": "amount",
          "type": "uint256"
        },
        {
          "indexed": false,
          "internalType": "uint256",
          "name": "borrowRate",
          "type": "uint256"
        },
        {
          "indexed": false,
          "internalType": "uint256",
          "name": "collateral",
          "type": "uint256"
        },
        {
          "indexed": false,
          "internalType": "uint256",
          "name": "debtScaled",
          "type": "uint256"
        }
      ],
      "name": "Borrow",
      "type": "event"
    },
    {
      "anonymous": false,
      "inputs": [
        {
          "indexed": true,
          "internalType": "address",
          "name": "poolUsd",
          "type": "address"
        },
        {
          "indexed": true,
          "internalType": "address",
          "name": "account",
          "type": "address"
        },
        {
          "indexed": false,
          "internalType": "uint256",
          "name": "amountUsdStartClose",
          "type": "uint256"
        },
        {
          "indexed": false,
          "internalType": "uint256",
          "name": "amountUsdAfterRepayAndSellCollateral",
          "type": "uint256"
        },
        {
          "indexed": false,
          "internalType": "uint256",
          "name": "amountUsdAfterBuyCollateralAndRepay",
          "type": "uint256"
        }
      ],
      "name": "Close",
      "type": "event"
    },
    {
      "anonymous": false,
      "inputs": [
        {
          "indexed": true,
          "internalType": "address",
          "name": "pool",
          "type": "address"
        },
        {
          "indexed": true,
          "internalType": "address",
          "name": "poolUsd",
          "type": "address"
        },
        {
          "indexed": true,
          "internalType": "address",
          "name": "account",
          "type": "address"
        },
        {
          "indexed": false,
          "internalType": "uint256",
          "name": "collateral",
          "type": "uint256"
        },
        {
          "indexed": false,
          "internalType": "uint256",
          "name": "debt",
          "type": "uint256"
        },
        {
          "indexed": false,
          "internalType": "uint256",
          "name": "remainUsd",
          "type": "uint256"
        },
        {
          "indexed": false,
          "internalType": "uint256",
          "name": "collateralUsd",
          "type": "uint256"
        },
        {
          "indexed": false,
          "internalType": "uint256",
          "name": "debtScaledUsd",
          "type": "uint256"
        }
      ],
      "name": "ClosePosition",
      "type": "event"
    },
    {
      "anonymous": false,
      "inputs": [
        {
          "indexed": true,
          "internalType": "address",
          "name": "pool",
          "type": "address"
        },
        {
          "indexed": true,
          "internalType": "address",
          "name": "depositer",
          "type": "address"
        },
        {
          "indexed": false,
          "internalType": "uint256",
          "name": "amount",
          "type": "uint256"
        },
        {
          "indexed": false,
          "internalType": "uint256",
          "name": "collateral",
          "type": "uint256"
        },
        {
          "indexed": false,
          "internalType": "uint256",
          "name": "debtScaled",
          "type": "uint256"
        }
      ],
      "name": "Deposit",
      "type": "event"
    },
    {
      "anonymous": false,
      "inputs": [
        {
          "indexed": true,
          "internalType": "address",
          "name": "liquidator",
          "type": "address"
        },
        {
          "indexed": true,
          "internalType": "address",
          "name": "account",
          "type": "address"
        },
        {
          "indexed": false,
          "internalType": "uint256",
          "name": "healthFactor",
          "type": "uint256"
        },
        {
          "indexed": false,
          "internalType": "uint256",
          "name": "healthFactorLiquidationThreshold",
          "type": "uint256"
        },
        {
          "indexed": false,
          "internalType": "uint256",
          "name": "totalCollateralUsd",
          "type": "uint256"
        },
        {
          "indexed": false,
          "internalType": "uint256",
          "name": "totalDebtUsd",
          "type": "uint256"
        }
      ],
      "name": "Liquidation",
      "type": "event"
    },
    {
      "anonymous": false,
      "inputs": [
        {
          "indexed": true,
          "internalType": "address",
          "name": "pool",
          "type": "address"
        },
        {
          "indexed": false,
          "internalType": "uint256",
          "name": "liquidityRate",
          "type": "uint256"
        },
        {
          "indexed": false,
          "internalType": "uint256",
          "name": "borrowRate",
          "type": "uint256"
        },
        {
          "indexed": false,
          "internalType": "uint256",
          "name": "liquidityIndex",
          "type": "uint256"
        },
        {
          "indexed": false,
          "internalType": "uint256",
          "name": "borrowIndex",
          "type": "uint256"
        }
      ],
      "name": "PoolUpdated",
      "type": "event"
    },
    {
      "anonymous": false,
      "inputs": [
        {
          "indexed": true,
          "internalType": "address",
          "name": "liquidator",
          "type": "address"
        },
        {
          "indexed": true,
          "internalType": "address",
          "name": "pool",
          "type": "address"
        },
        {
          "indexed": true,
          "internalType": "address",
          "name": "account",
          "type": "address"
        },
        {
          "indexed": false,
          "internalType": "uint256",
          "name": "collateral",
          "type": "uint256"
        },
        {
          "indexed": false,
          "internalType": "uint256",
          "name": "debt",
          "type": "uint256"
        },
        {
          "indexed": false,
          "internalType": "uint256",
          "name": "price",
          "type": "uint256"
        }
      ],
      "name": "PositionLiquidation",
      "type": "event"
    },
    {
      "anonymous": false,
      "inputs": [
        {
          "indexed": true,
          "internalType": "address",
          "name": "pool",
          "type": "address"
        },
        {
          "indexed": true,
          "internalType": "address",
          "name": "redeemer",
          "type": "address"
        },
        {
          "indexed": true,
          "internalType": "address",
          "name": "to",
          "type": "address"
        },
        {
          "indexed": false,
          "internalType": "uint256",
          "name": "amount",
          "type": "uint256"
        },
        {
          "indexed": false,
          "internalType": "uint256",
          "name": "collateral",
          "type": "uint256"
        },
        {
          "indexed": false,
          "internalType": "uint256",
          "name": "debtScaled",
          "type": "uint256"
        }
      ],
      "name": "Redeem",
      "type": "event"
    },
    {
      "anonymous": false,
      "inputs": [
        {
          "indexed": true,
          "internalType": "address",
          "name": "pool",
          "type": "address"
        },
        {
          "indexed": true,
          "internalType": "address",
          "name": "repayer",
          "type": "address"
        },
        {
          "indexed": false,
          "internalType": "uint256",
          "name": "amount",
          "type": "uint256"
        },
        {
          "indexed": false,
          "internalType": "bool",
          "name": "useCollateral",
          "type": "bool"
        },
        {
          "indexed": false,
          "internalType": "uint256",
          "name": "collateral",
          "type": "uint256"
        },
        {
          "indexed": false,
          "internalType": "uint256",
          "name": "debtScaled",
          "type": "uint256"
        }
      ],
      "name": "Repay",
      "type": "event"
    },
    {
      "anonymous": false,
      "inputs": [
        {
          "indexed": true,
          "internalType": "address",
          "name": "pool",
          "type": "address"
        },
        {
          "indexed": true,
          "internalType": "address",
          "name": "supplier",
          "type": "address"
        },
        {
          "indexed": true,
          "internalType": "address",
          "name": "to",
          "type": "address"
        },
        {
          "indexed": false,
          "internalType": "uint256",
          "name": "amount",
          "type": "uint256"
        }
      ],
      "name": "Supply",
      "type": "event"
    },
    {
      "anonymous": false,
      "inputs": [
        {
          "indexed": true,
          "internalType": "address",
          "name": "poolIn",
          "type": "address"
        },
        {
          "indexed": true,
          "internalType": "address",
          "name": "poolOut",
          "type": "address"
        },
        {
          "indexed": true,
          "internalType": "address",
          "name": "account",
          "type": "address"
        },
        {
          "indexed": false,
          "internalType": "uint256",
          "name": "amountIn",
          "type": "uint256"
        },
        {
          "indexed": false,
          "internalType": "uint256",
          "name": "amountOut",
          "type": "uint256"
        },
        {
          "indexed": false,
          "internalType": "uint256",
          "name": "fee",
          "type": "uint256"
        },
        {
          "indexed": false,
          "internalType": "uint256",
          "name": "collateralIn",
          "type": "uint256"
        },
        {
          "indexed": false,
          "internalType": "uint256",
          "name": "debtScaledIn",
          "type": "uint256"
        },
        {
          "indexed": false,
          "internalType": "uint256",
          "name": "collateralOut",
          "type": "uint256"
        },
        {
          "indexed": false,
          "internalType": "uint256",
          "name": "debtScaledOut",
          "type": "uint256"
        }
      ],
      "name": "Swap",
      "type": "event"
    },
    {
      "anonymous": false,
      "inputs": [
        {
          "indexed": true,
          "internalType": "address",
          "name": "pool",
          "type": "address"
        },
        {
          "indexed": true,
          "internalType": "address",
          "name": "withdrawer",
          "type": "address"
        },
        {
          "indexed": true,
          "internalType": "address",
          "name": "to",
          "type": "address"
        },
        {
          "indexed": false,
          "internalType": "uint256",
          "name": "amount",
          "type": "uint256"
        }
      ],
      "name": "Withdraw",
      "type": "event"
    },
    {
      "inputs": [
        {
          "internalType": "address",
          "name": "underlyingAsset",
          "type": "address"
        },
        {
          "internalType": "address",
          "name": "account",
          "type": "address"
        },
        {
          "internalType": "uint256",
          "name": "borrowAmount",
          "type": "uint256"
        },
        {
          "internalType": "uint256",
          "name": "borrowRate",
          "type": "uint256"
        },
        {
          "internalType": "uint256",
          "name": "collateral",
          "type": "uint256"
        },
        {
          "internalType": "uint256",
          "name": "debtScaled",
          "type": "uint256"
        }
      ],
      "name": "emitBorrow",
      "outputs": [],
      "stateMutability": "nonpayable",
      "type": "function"
    },
    {
      "inputs": [
        {
          "internalType": "address",
          "name": "underlyingAssetUsd",
          "type": "address"
        },
        {
          "internalType": "address",
          "name": "account",
          "type": "address"
        },
        {
          "internalType": "uint256",
          "name": "amountUsdStartClose",
          "type": "uint256"
        },
        {
          "internalType": "uint256",
          "name": "amountUsdAfterRepayAndSellCollateral",
          "type": "uint256"
        },
        {
          "internalType": "uint256",
          "name": "amountUsdAfterBuyCollateralAndRepay",
          "type": "uint256"
        }
      ],
      "name": "emitClose",
      "outputs": [],
      "stateMutability": "nonpayable",
      "type": "function"
    },
    {
      "inputs": [
        {
          "internalType": "address",
          "name": "underlyingAsset",
          "type": "address"
        },
        {
          "internalType": "address",
          "name": "underlyingAssetUsd",
          "type": "address"
        },
        {
          "internalType": "address",
          "name": "account",
          "type": "address"
        },
        {
          "internalType": "uint256",
          "name": "collateralAmount",
          "type": "uint256"
        },
        {
          "internalType": "uint256",
          "name": "debtAmount",
          "type": "uint256"
        },
        {
          "internalType": "uint256",
          "name": "remainAmountUsd",
          "type": "uint256"
        },
        {
          "internalType": "uint256",
          "name": "collateralUsd",
          "type": "uint256"
        },
        {
          "internalType": "uint256",
          "name": "debtScaledUsd",
          "type": "uint256"
        }
      ],
      "name": "emitClosePosition",
      "outputs": [],
      "stateMutability": "nonpayable",
      "type": "function"
    },
    {
      "inputs": [
        {
          "internalType": "address",
          "name": "underlyingAsset",
          "type": "address"
        },
        {
          "internalType": "address",
          "name": "account",
          "type": "address"
        },
        {
          "internalType": "uint256",
          "name": "depositAmount",
          "type": "uint256"
        },
        {
          "internalType": "uint256",
          "name": "collateral",
          "type": "uint256"
        },
        {
          "internalType": "uint256",
          "name": "debtScaled",
          "type": "uint256"
        }
      ],
      "name": "emitDeposit",
      "outputs": [],
      "stateMutability": "nonpayable",
      "type": "function"
    },
    {
      "inputs": [
        {
          "internalType": "address",
          "name": "liquidator",
          "type": "address"
        },
        {
          "internalType": "address",
          "name": "account",
          "type": "address"
        },
        {
          "internalType": "uint256",
          "name": "healthFactor",
          "type": "uint256"
        },
        {
          "internalType": "uint256",
          "name": "healthFactorLiquidationThreshold",
          "type": "uint256"
        },
        {
          "internalType": "uint256",
          "name": "totalCollateralUsd",
          "type": "uint256"
        },
        {
          "internalType": "uint256",
          "name": "totalDebtUsd",
          "type": "uint256"
        }
      ],
      "name": "emitLiquidation",
      "outputs": [],
      "stateMutability": "nonpayable",
      "type": "function"
    },
    {
      "inputs": [
        {
          "internalType": "address",
          "name": "underlyingAsset",
          "type": "address"
        },
        {
          "internalType": "uint256",
          "name": "liquidityRate",
          "type": "uint256"
        },
        {
          "internalType": "uint256",
          "name": "borrowRate",
          "type": "uint256"
        },
        {
          "internalType": "uint256",
          "name": "liquidityIndex",
          "type": "uint256"
        },
        {
          "internalType": "uint256",
          "name": "borrowIndex",
          "type": "uint256"
        }
      ],
      "name": "emitPoolUpdated",
      "outputs": [],
      "stateMutability": "nonpayable",
      "type": "function"
    },
    {
      "inputs": [
        {
          "internalType": "address",
          "name": "liquidator",
          "type": "address"
        },
        {
          "internalType": "address",
          "name": "underlyingAsset",
          "type": "address"
        },
        {
          "internalType": "address",
          "name": "account",
          "type": "address"
        },
        {
          "internalType": "uint256",
          "name": "collateral",
          "type": "uint256"
        },
        {
          "internalType": "uint256",
          "name": "debt",
          "type": "uint256"
        },
        {
          "internalType": "uint256",
          "name": "price",
          "type": "uint256"
        }
      ],
      "name": "emitPositionLiquidation",
      "outputs": [],
      "stateMutability": "nonpayable",
      "type": "function"
    },
    {
      "inputs": [
        {
          "internalType": "address",
          "name": "underlyingAsset",
          "type": "address"
        },
        {
          "internalType": "address",
          "name": "account",
          "type": "address"
        },
        {
          "internalType": "address",
          "name": "to",
          "type": "address"
        },
        {
          "internalType": "uint256",
          "name": "redeemAmount",
          "type": "uint256"
        },
        {
          "internalType": "uint256",
          "name": "collateral",
          "type": "uint256"
        },
        {
          "internalType": "uint256",
          "name": "debtScaled",
          "type": "uint256"
        }
      ],
      "name": "emitRedeem",
      "outputs": [],
      "stateMutability": "nonpayable",
      "type": "function"
    },
    {
      "inputs": [
        {
          "internalType": "address",
          "name": "underlyingAsset",
          "type": "address"
        },
        {
          "internalType": "address",
          "name": "repayer",
          "type": "address"
        },
        {
          "internalType": "uint256",
          "name": "repayAmount",
          "type": "uint256"
        },
        {
          "internalType": "bool",
          "name": "useCollateral",
          "type": "bool"
        },
        {
          "internalType": "uint256",
          "name": "collateral",
          "type": "uint256"
        },
        {
          "internalType": "uint256",
          "name": "debtScaled",
          "type": "uint256"
        }
      ],
      "name": "emitRepay",
      "outputs": [],
      "stateMutability": "nonpayable",
      "type": "function"
    },
    {
      "inputs": [
        {
          "internalType": "address",
          "name": "underlyingAsset",
          "type": "address"
        },
        {
          "internalType": "address",
          "name": "account",
          "type": "address"
        },
        {
          "internalType": "address",
          "name": "to",
          "type": "address"
        },
        {
          "internalType": "uint256",
          "name": "supplyAmount",
          "type": "uint256"
        }
      ],
      "name": "emitSupply",
      "outputs": [],
      "stateMutability": "nonpayable",
      "type": "function"
    },
    {
      "inputs": [
        {
          "internalType": "address",
          "name": "underlyingAssetIn",
          "type": "address"
        },
        {
          "internalType": "address",
          "name": "underlyingAssetOut",
          "type": "address"
        },
        {
          "internalType": "address",
          "name": "account",
          "type": "address"
        },
        {
          "internalType": "uint256",
          "name": "amountIn",
          "type": "uint256"
        },
        {
          "internalType": "uint256",
          "name": "amountOut",
          "type": "uint256"
        },
        {
          "internalType": "uint256",
          "name": "fee",
          "type": "uint256"
        },
        {
          "internalType": "uint256",
          "name": "collateralIn",
          "type": "uint256"
        },
        {
          "internalType": "uint256",
          "name": "debtScaledIn",
          "type": "uint256"
        },
        {
          "internalType": "uint256",
          "name": "collateralOut",
          "type": "uint256"
        },
        {
          "internalType": "uint256",
          "name": "debtScaledOut",
          "type": "uint256"
        }
      ],
      "name": "emitSwap",
      "outputs": [],
      "stateMutability": "nonpayable",
      "type": "function"
    },
    {
      "inputs": [
        {
          "internalType": "address",
          "name": "underlyingAsset",
          "type": "address"
        },
        {
          "internalType": "address",
          "name": "account",
          "type": "address"
        },
        {
          "internalType": "address",
          "name": "to",
          "type": "address"
        },
        {
          "internalType": "uint256",
          "name": "withdrawAmount",
          "type": "uint256"
        }
      ],
      "name": "emitWithdraw",
      "outputs": [],
      "stateMutability": "nonpayable",
      "type": "function"
    },
    {
      "inputs": [],
      "name": "roleStore",
      "outputs": [
        {
          "internalType": "contract RoleStore",
          "name": "",
          "type": "address"
        }
      ],
      "stateMutability": "view",
      "type": "function"
    }
  ],
  "bytecode": "0x60a060405234801561001057600080fd5b50604051610c9e380380610c9e83398101604081905261002f91610040565b6001600160a01b0316608052610070565b60006020828403121561005257600080fd5b81516001600160a01b038116811461006957600080fd5b9392505050565b608051610c0c61009260003960008181610114015261077e0152610c0c6000f3fe608060405234801561001057600080fd5b50600436106100cf5760003560e01c80637ba59a8b1161008c5780639324595b116100665780639324595b146101b157806394e0dd1d146101c4578063a250ab9a146101d7578063f002e0bd146101ea57600080fd5b80637ba59a8b146101785780637c24dab71461018b57806387a454ec1461019e57600080fd5b8063054a90c5146100d457806325ecca95146100e9578063324ac765146100fc5780634a4a7b041461010f5780635b63816e1461015257806366e4d17a14610165575b600080fd5b6100e76100e236600461083b565b6101fd565b005b6100e76100f736600461083b565b6102aa565b6100e761010a36600461089a565b61030d565b6101367f000000000000000000000000000000000000000000000000000000000000000081565b6040516001600160a01b03909116815260200160405180910390f35b6100e76101603660046108f8565b610378565b6100e7610173366004610959565b6103ec565b6100e761018636600461089a565b61047a565b6100e76101993660046109dd565b6104da565b6100e76101ac366004610a1f565b610546565b6100e76101bf366004610a90565b6105c4565b6100e76101d2366004610adb565b610633565b6100e76101e5366004610a90565b61069a565b6100e76101f8366004610adb565b6106fb565b61024d60405160200161020f90610b30565b604051602081830303815290604052805190602001206040518060400160405280600a81526020016921a7a72a2927a62622a960b11b815250610762565b60408051848152602081018490529081018290526001600160a01b0380861691878216918916907fde74dcb4b9894d99afee49abaa5b8eeece8399422c403c5128b2958f0dd61805906060015b60405180910390a4505050505050565b6102bc60405160200161020f90610b30565b60408051848152602081018490529081018290526001600160a01b0380861691878216918916907ff7e4278e8805ee20185344a7349aaa91cdcf5f316fbf66894f614a33debd06799060600161029a565b61031f60405160200161020f90610b30565b60408051848152602081018490529081018290526001600160a01b0380861691908716907fb149470201600d81e1698a9d001d20f8d2a036d2c0f425436b65a154e95eb53a906060015b60405180910390a35050505050565b61038a60405160200161020f90610b30565b604080518581528415156020820152908101839052606081018290526001600160a01b0380871691908816907f5ca7f1e42fbae6c27024a8364d7f80e1ece702fcca05b40de69e2e8cbca2fac9906080015b60405180910390a3505050505050565b6103fe60405160200161020f90610b30565b6040805188815260208101889052908101869052606081018590526080810184905260a0810183905260c081018290526001600160a01b03808a16918b8216918d16907f533855cb8a87f0995f6c3390665eb37da822f5550b13a973a77906d018a2a89c9060e00160405180910390a450505050505050505050565b61048c60405160200161020f90610b30565b60408051848152602081018490529081018290526001600160a01b0380861691908716907f4e2ca0515ed1aef1395f66b5303bb5d6f1bf9d61a353fa53f73f8ac9973fa9f690606001610369565b6104ec60405160200161020f90610b30565b6040805185815260208101859052908101839052606081018290526001600160a01b038616907fc320a8529b15b851aaa68519919ac344e1caceaf4f47d15df6e58181dfec63199060800160405180910390a25050505050565b61055860405160200161020f90610b30565b604080518681526020810186905290810184905260608101839052608081018290526001600160a01b0380881691898216918b16907f524e2fbe9762deed9c2f1e133c0a6fd90e991a8f874edb68c5750dc3e43eaacd9060a00160405180910390a45050505050505050565b6105d660405160200161020f90610b30565b816001600160a01b0316836001600160a01b0316856001600160a01b03167f4f7857497e115bb4e8acd8d9f7382eb4c159d874838d6368099523ab6ef9f6318460405161062591815260200190565b60405180910390a450505050565b61064560405160200161020f90610b30565b6040805185815260208101859052908101839052606081018290526001600160a01b0380871691908816907fc70fd1eb40d7ae44a5425c09dece5a023b47277356e005b6caef1600cfc7334e906080016103dc565b6106ac60405160200161020f90610b30565b816001600160a01b0316836001600160a01b0316856001600160a01b03167f3115d1449a7b732c986cba18244e897a450f61e1bb8d589cd2e69e6c8924f9f78460405161062591815260200190565b61070d60405160200161020f90610b30565b6040805185815260208101859052908101839052606081018290526001600160a01b0380871691908816907f9b079d2f87f543b9b06c6732ea4d73fd08f69c2f2a51dde314ad9150302af754906080016103dc565b60405163ac4ab3fb60e01b8152336004820152602481018390527f00000000000000000000000000000000000000000000000000000000000000006001600160a01b03169063ac4ab3fb90604401602060405180830381865afa1580156107cd573d6000803e3d6000fd5b505050506040513d601f19601f820116820180604052508101906107f19190610b54565b61081b57338160405163a35b150b60e01b8152600401610812929190610b78565b60405180910390fd5b5050565b80356001600160a01b038116811461083657600080fd5b919050565b60008060008060008060c0878903121561085457600080fd5b61085d8761081f565b955061086b6020880161081f565b94506108796040880161081f565b9350606087013592506080870135915060a087013590509295509295509295565b600080600080600060a086880312156108b257600080fd5b6108bb8661081f565b94506108c96020870161081f565b94979496505050506040830135926060810135926080909101359150565b80151581146108f557600080fd5b50565b60008060008060008060c0878903121561091157600080fd5b61091a8761081f565b95506109286020880161081f565b945060408701359350606087013561093f816108e7565b9598949750929560808101359460a0909101359350915050565b6000806000806000806000806000806101408b8d03121561097957600080fd5b6109828b61081f565b995061099060208c0161081f565b985061099e60408c0161081f565b999c989b5098996060810135995060808101359860a0820135985060c0820135975060e082013596506101008201359550610120909101359350915050565b600080600080600060a086880312156109f557600080fd5b6109fe8661081f565b97602087013597506040870135966060810135965060800135945092505050565b600080600080600080600080610100898b031215610a3c57600080fd5b610a458961081f565b9750610a5360208a0161081f565b9650610a6160408a0161081f565b979a96995096976060810135975060808101359660a0820135965060c0820135955060e0909101359350915050565b60008060008060808587031215610aa657600080fd5b610aaf8561081f565b9350610abd6020860161081f565b9250610acb6040860161081f565b9396929550929360600135925050565b60008060008060008060c08789031215610af457600080fd5b610afd8761081f565b9550610b0b6020880161081f565b95989597505050506040840135936060810135936080820135935060a0909101359150565b6020808252600a908201526921a7a72a2927a62622a960b11b604082015260600190565b600060208284031215610b6657600080fd5b8151610b71816108e7565b9392505050565b60018060a01b038316815260006020604081840152835180604085015260005b81811015610bb457858101830151858201606001528201610b98565b506000606082860101526060601f19601f83011685010192505050939250505056fea26469706673582212207026bb96b16f5a8316ed1ee4e16c07beba625e2e06bc7d51528b93cadf71850a64736f6c63430008140033",
  "linkReferences": {},
  "deployedLinkReferences": {}
}