{
  "_format": "hh-sol-artifact-1",
  "contractName": "EventEmitter",
  "sourceName": "contracts/event/EventEmitter.sol",
  "abi": [
    {
      "inputs": [
        {
          "internalType": "contract RoleStore",
          "name": "_roleStore",
          "type": "address"
        }
      ],
      "stateMutability": "nonpayable",
      "type": "constructor"
    },
    {
      "inputs": [
        {
          "internalType": "address",
          "name": "msgSender",
          "type": "address"
        },
        {
          "internalType": "string",
          "name": "role",
          "type": "string"
        }
      ],
      "name": "Unauthorized",
      "type": "error"
    },
    {
      "anonymous": false,
      "inputs": [
        {
          "indexed": true,
          "internalType": "address",
          "name": "pool",
          "type": "address"
        },
        {
          "indexed": true,
          "internalType": "address",
          "name": "borrower",
          "type": "address"
        },
        {
          "indexed": false,
          "internalType": "uint256",
          "name": "amount",
          "type": "uint256"
        },
        {
          "indexed": false,
          "internalType": "uint256",
          "name": "borrowRate",
          "type": "uint256"
        }
      ],
      "name": "Borrow",
      "type": "event"
    },
    {
      "anonymous": false,
      "inputs": [
        {
          "indexed": true,
          "internalType": "address",
          "name": "poolUsd",
          "type": "address"
        },
        {
          "indexed": true,
          "internalType": "address",
          "name": "account",
          "type": "address"
        },
        {
          "indexed": false,
          "internalType": "uint256",
          "name": "amountUsdStartClose",
          "type": "uint256"
        },
        {
          "indexed": false,
          "internalType": "uint256",
          "name": "amountUsdAfterRepayAndSellCollateral",
          "type": "uint256"
        },
        {
          "indexed": false,
          "internalType": "uint256",
          "name": "amountUsdAfterBuyCollateralAndRepay",
          "type": "uint256"
        }
      ],
      "name": "Close",
      "type": "event"
    },
    {
      "anonymous": false,
      "inputs": [
        {
          "indexed": true,
          "internalType": "address",
          "name": "pool",
          "type": "address"
        },
        {
          "indexed": true,
          "internalType": "address",
          "name": "poolUsd",
          "type": "address"
        },
        {
          "indexed": true,
          "internalType": "address",
          "name": "account",
          "type": "address"
        },
        {
          "indexed": false,
          "internalType": "uint256",
          "name": "collateral",
          "type": "uint256"
        },
        {
          "indexed": false,
          "internalType": "uint256",
          "name": "debt",
          "type": "uint256"
        },
        {
          "indexed": false,
          "internalType": "uint256",
          "name": "remainUsd",
          "type": "uint256"
        }
      ],
      "name": "ClosePosition",
      "type": "event"
    },
    {
      "anonymous": false,
      "inputs": [
        {
          "indexed": true,
          "internalType": "address",
          "name": "pool",
          "type": "address"
        },
        {
          "indexed": true,
          "internalType": "address",
          "name": "depositer",
          "type": "address"
        },
        {
          "indexed": false,
          "internalType": "uint256",
          "name": "amount",
          "type": "uint256"
        }
      ],
      "name": "Deposit",
      "type": "event"
    },
    {
      "anonymous": false,
      "inputs": [
        {
          "indexed": true,
          "internalType": "address",
          "name": "liquidator",
          "type": "address"
        },
        {
          "indexed": true,
          "internalType": "address",
          "name": "account",
          "type": "address"
        },
        {
          "indexed": false,
          "internalType": "uint256",
          "name": "healthFactor",
          "type": "uint256"
        },
        {
          "indexed": false,
          "internalType": "uint256",
          "name": "healthFactorLiquidationThreshold",
          "type": "uint256"
        },
        {
          "indexed": false,
          "internalType": "uint256",
          "name": "totalCollateralUsd",
          "type": "uint256"
        },
        {
          "indexed": false,
          "internalType": "uint256",
          "name": "totalDebtUsd",
          "type": "uint256"
        }
      ],
      "name": "Liquidation",
      "type": "event"
    },
    {
      "anonymous": false,
      "inputs": [
        {
          "indexed": true,
          "internalType": "address",
          "name": "liquidator",
          "type": "address"
        },
        {
          "indexed": true,
          "internalType": "address",
          "name": "pool",
          "type": "address"
        },
        {
          "indexed": true,
          "internalType": "address",
          "name": "account",
          "type": "address"
        },
        {
          "indexed": false,
          "internalType": "uint256",
          "name": "collateral",
          "type": "uint256"
        },
        {
          "indexed": false,
          "internalType": "uint256",
          "name": "debt",
          "type": "uint256"
        },
        {
          "indexed": false,
          "internalType": "uint256",
          "name": "price",
          "type": "uint256"
        }
      ],
      "name": "PositionLiquidation",
      "type": "event"
    },
    {
      "anonymous": false,
      "inputs": [
        {
          "indexed": true,
          "internalType": "address",
          "name": "pool",
          "type": "address"
        },
        {
          "indexed": true,
          "internalType": "address",
          "name": "redeemer",
          "type": "address"
        },
        {
          "indexed": true,
          "internalType": "address",
          "name": "to",
          "type": "address"
        },
        {
          "indexed": false,
          "internalType": "uint256",
          "name": "amount",
          "type": "uint256"
        }
      ],
      "name": "Redeem",
      "type": "event"
    },
    {
      "anonymous": false,
      "inputs": [
        {
          "indexed": true,
          "internalType": "address",
          "name": "pool",
          "type": "address"
        },
        {
          "indexed": true,
          "internalType": "address",
          "name": "repayer",
          "type": "address"
        },
        {
          "indexed": false,
          "internalType": "uint256",
          "name": "amount",
          "type": "uint256"
        },
        {
          "indexed": false,
          "internalType": "bool",
          "name": "useCollateral",
          "type": "bool"
        }
      ],
      "name": "Repay",
      "type": "event"
    },
    {
      "anonymous": false,
      "inputs": [
        {
          "indexed": true,
          "internalType": "address",
          "name": "pool",
          "type": "address"
        },
        {
          "indexed": true,
          "internalType": "address",
          "name": "supplier",
          "type": "address"
        },
        {
          "indexed": true,
          "internalType": "address",
          "name": "to",
          "type": "address"
        },
        {
          "indexed": false,
          "internalType": "uint256",
          "name": "amount",
          "type": "uint256"
        }
      ],
      "name": "Supply",
      "type": "event"
    },
    {
      "anonymous": false,
      "inputs": [
        {
          "indexed": true,
          "internalType": "address",
          "name": "underlyingAssetIn",
          "type": "address"
        },
        {
          "indexed": true,
          "internalType": "address",
          "name": "underlyingAssetOut",
          "type": "address"
        },
        {
          "indexed": true,
          "internalType": "address",
          "name": "account",
          "type": "address"
        },
        {
          "indexed": false,
          "internalType": "uint256",
          "name": "amountIn",
          "type": "uint256"
        },
        {
          "indexed": false,
          "internalType": "uint256",
          "name": "amountOut",
          "type": "uint256"
        }
      ],
      "name": "Swap",
      "type": "event"
    },
    {
      "anonymous": false,
      "inputs": [
        {
          "indexed": true,
          "internalType": "address",
          "name": "pool",
          "type": "address"
        },
        {
          "indexed": true,
          "internalType": "address",
          "name": "withdrawer",
          "type": "address"
        },
        {
          "indexed": true,
          "internalType": "address",
          "name": "to",
          "type": "address"
        },
        {
          "indexed": false,
          "internalType": "uint256",
          "name": "amount",
          "type": "uint256"
        }
      ],
      "name": "Withdraw",
      "type": "event"
    },
    {
      "inputs": [
        {
          "internalType": "address",
          "name": "underlyingAsset",
          "type": "address"
        },
        {
          "internalType": "address",
          "name": "account",
          "type": "address"
        },
        {
          "internalType": "uint256",
          "name": "borrowAmount",
          "type": "uint256"
        },
        {
          "internalType": "uint256",
          "name": "borrowRate",
          "type": "uint256"
        }
      ],
      "name": "emitBorrow",
      "outputs": [],
      "stateMutability": "nonpayable",
      "type": "function"
    },
    {
      "inputs": [
        {
          "internalType": "address",
          "name": "underlyingAssetUsd",
          "type": "address"
        },
        {
          "internalType": "address",
          "name": "account",
          "type": "address"
        },
        {
          "internalType": "uint256",
          "name": "amountUsdStartClose",
          "type": "uint256"
        },
        {
          "internalType": "uint256",
          "name": "amountUsdAfterRepayAndSellCollateral",
          "type": "uint256"
        },
        {
          "internalType": "uint256",
          "name": "amountUsdAfterBuyCollateralAndRepay",
          "type": "uint256"
        }
      ],
      "name": "emitClose",
      "outputs": [],
      "stateMutability": "nonpayable",
      "type": "function"
    },
    {
      "inputs": [
        {
          "internalType": "address",
          "name": "underlyingAsset",
          "type": "address"
        },
        {
          "internalType": "address",
          "name": "underlyingAssetUsd",
          "type": "address"
        },
        {
          "internalType": "address",
          "name": "account",
          "type": "address"
        },
        {
          "internalType": "uint256",
          "name": "collateralAmount",
          "type": "uint256"
        },
        {
          "internalType": "uint256",
          "name": "debtAmount",
          "type": "uint256"
        },
        {
          "internalType": "uint256",
          "name": "remainAmountUsd",
          "type": "uint256"
        }
      ],
      "name": "emitClosePosition",
      "outputs": [],
      "stateMutability": "nonpayable",
      "type": "function"
    },
    {
      "inputs": [
        {
          "internalType": "address",
          "name": "underlyingAsset",
          "type": "address"
        },
        {
          "internalType": "address",
          "name": "account",
          "type": "address"
        },
        {
          "internalType": "uint256",
          "name": "depositAmount",
          "type": "uint256"
        }
      ],
      "name": "emitDeposit",
      "outputs": [],
      "stateMutability": "nonpayable",
      "type": "function"
    },
    {
      "inputs": [
        {
          "internalType": "address",
          "name": "liquidator",
          "type": "address"
        },
        {
          "internalType": "address",
          "name": "account",
          "type": "address"
        },
        {
          "internalType": "uint256",
          "name": "healthFactor",
          "type": "uint256"
        },
        {
          "internalType": "uint256",
          "name": "healthFactorLiquidationThreshold",
          "type": "uint256"
        },
        {
          "internalType": "uint256",
          "name": "totalCollateralUsd",
          "type": "uint256"
        },
        {
          "internalType": "uint256",
          "name": "totalDebtUsd",
          "type": "uint256"
        }
      ],
      "name": "emitLiquidation",
      "outputs": [],
      "stateMutability": "nonpayable",
      "type": "function"
    },
    {
      "inputs": [
        {
          "internalType": "address",
          "name": "liquidator",
          "type": "address"
        },
        {
          "internalType": "address",
          "name": "underlyingAsset",
          "type": "address"
        },
        {
          "internalType": "address",
          "name": "account",
          "type": "address"
        },
        {
          "internalType": "uint256",
          "name": "collateral",
          "type": "uint256"
        },
        {
          "internalType": "uint256",
          "name": "debt",
          "type": "uint256"
        },
        {
          "internalType": "uint256",
          "name": "price",
          "type": "uint256"
        }
      ],
      "name": "emitPositionLiquidation",
      "outputs": [],
      "stateMutability": "nonpayable",
      "type": "function"
    },
    {
      "inputs": [
        {
          "internalType": "address",
          "name": "underlyingAsset",
          "type": "address"
        },
        {
          "internalType": "address",
          "name": "account",
          "type": "address"
        },
        {
          "internalType": "address",
          "name": "to",
          "type": "address"
        },
        {
          "internalType": "uint256",
          "name": "redeemAmount",
          "type": "uint256"
        }
      ],
      "name": "emitRedeem",
      "outputs": [],
      "stateMutability": "nonpayable",
      "type": "function"
    },
    {
      "inputs": [
        {
          "internalType": "address",
          "name": "underlyingAsset",
          "type": "address"
        },
        {
          "internalType": "address",
          "name": "repayer",
          "type": "address"
        },
        {
          "internalType": "uint256",
          "name": "repayAmount",
          "type": "uint256"
        },
        {
          "internalType": "bool",
          "name": "useCollateral",
          "type": "bool"
        }
      ],
      "name": "emitRepay",
      "outputs": [],
      "stateMutability": "nonpayable",
      "type": "function"
    },
    {
      "inputs": [
        {
          "internalType": "address",
          "name": "underlyingAsset",
          "type": "address"
        },
        {
          "internalType": "address",
          "name": "account",
          "type": "address"
        },
        {
          "internalType": "address",
          "name": "to",
          "type": "address"
        },
        {
          "internalType": "uint256",
          "name": "supplyAmount",
          "type": "uint256"
        }
      ],
      "name": "emitSupply",
      "outputs": [],
      "stateMutability": "nonpayable",
      "type": "function"
    },
    {
      "inputs": [
        {
          "internalType": "address",
          "name": "underlyingAssetIn",
          "type": "address"
        },
        {
          "internalType": "address",
          "name": "underlyingAssetOut",
          "type": "address"
        },
        {
          "internalType": "address",
          "name": "account",
          "type": "address"
        },
        {
          "internalType": "uint256",
          "name": "amountIn",
          "type": "uint256"
        },
        {
          "internalType": "uint256",
          "name": "amountOut",
          "type": "uint256"
        }
      ],
      "name": "emitSwap",
      "outputs": [],
      "stateMutability": "nonpayable",
      "type": "function"
    },
    {
      "inputs": [
        {
          "internalType": "address",
          "name": "underlyingAsset",
          "type": "address"
        },
        {
          "internalType": "address",
          "name": "account",
          "type": "address"
        },
        {
          "internalType": "address",
          "name": "to",
          "type": "address"
        },
        {
          "internalType": "uint256",
          "name": "withdrawAmount",
          "type": "uint256"
        }
      ],
      "name": "emitWithdraw",
      "outputs": [],
      "stateMutability": "nonpayable",
      "type": "function"
    },
    {
      "inputs": [],
      "name": "roleStore",
      "outputs": [
        {
          "internalType": "contract RoleStore",
          "name": "",
          "type": "address"
        }
      ],
      "stateMutability": "view",
      "type": "function"
    }
  ],
  "bytecode": "0x60a060405234801561001057600080fd5b50604051610b55380380610b5583398101604081905261002f91610040565b6001600160a01b0316608052610070565b60006020828403121561005257600080fd5b81516001600160a01b038116811461006957600080fd5b9392505050565b608051610ac46100916000396000818160e601526106ac0152610ac46000f3fe608060405234801561001057600080fd5b50600436106100b45760003560e01c80639324595b116100715780639324595b1461015d57806394e0dd1d14610170578063a250ab9a14610183578063bb0e0b2c14610196578063d30597e2146101a9578063e764ac72146101bc57600080fd5b8063054a90c5146100b9578063324ac765146100ce5780634a4a7b04146100e15780636c1456dd146101245780638b7711b4146101375780639070fbf01461014a575b600080fd5b6100cc6100c7366004610769565b6101cf565b005b6100cc6100dc3660046107c8565b61027c565b6101087f000000000000000000000000000000000000000000000000000000000000000081565b6040516001600160a01b03909116815260200160405180910390f35b6100cc610132366004610769565b6102e6565b6100cc610145366004610815565b610349565b6100cc610158366004610851565b6103ad565b6100cc61016b3660046108a6565b610426565b6100cc61017e3660046108f1565b610495565b6100cc6101913660046108a6565b610507565b6100cc6101a43660046108a6565b610568565b6100cc6101b7366004610946565b6105c9565b6100cc6101ca366004610999565b610637565b61021f6040516020016101e1906109e8565b604051602081830303815290604052805190602001206040518060400160405280600a81526020016921a7a72a2927a62622a960b11b815250610690565b60408051848152602081018490529081018290526001600160a01b0380861691878216918916907fde74dcb4b9894d99afee49abaa5b8eeece8399422c403c5128b2958f0dd61805906060015b60405180910390a4505050505050565b61028e6040516020016101e1906109e8565b60408051848152602081018490529081018290526001600160a01b0380861691908716907fb149470201600d81e1698a9d001d20f8d2a036d2c0f425436b65a154e95eb53a9060600160405180910390a35050505050565b6102f86040516020016101e1906109e8565b60408051848152602081018490529081018290526001600160a01b0380861691878216918916907f48db052c40464beea286f6ca9e56f6c494dc12ae7f3faaf7f8f628841c976acd9060600161026c565b61035b6040516020016101e1906109e8565b816001600160a01b0316836001600160a01b03167f5548c837ab068cf56a2c2479df0882a4922fd203edb7517321831d95078c5f62836040516103a091815260200190565b60405180910390a3505050565b6103bf6040516020016101e1906109e8565b826001600160a01b0316846001600160a01b0316866001600160a01b03167fcd3829a3813dc3cdd188fd3d01dcf3268c16be2fdd2dd21d0665418816e460628585604051610417929190918252602082015260400190565b60405180910390a45050505050565b6104386040516020016101e1906109e8565b816001600160a01b0316836001600160a01b0316856001600160a01b03167f4f7857497e115bb4e8acd8d9f7382eb4c159d874838d6368099523ab6ef9f6318460405161048791815260200190565b60405180910390a450505050565b6104a76040516020016101e1906109e8565b6040805185815260208101859052908101839052606081018290526001600160a01b0380871691908816907fc70fd1eb40d7ae44a5425c09dece5a023b47277356e005b6caef1600cfc7334e9060800160405180910390a3505050505050565b6105196040516020016101e1906109e8565b816001600160a01b0316836001600160a01b0316856001600160a01b03167f3115d1449a7b732c986cba18244e897a450f61e1bb8d589cd2e69e6c8924f9f78460405161048791815260200190565b61057a6040516020016101e1906109e8565b816001600160a01b0316836001600160a01b0316856001600160a01b03167fee02732fab40ece8284c756220846dff4b8d32058b86b35b4f0459bf172fcef08460405161048791815260200190565b6105db6040516020016101e1906109e8565b826001600160a01b0316846001600160a01b03167fc1561b330e73faa7d5d1ac03c968d8f359b0191ccdb9cc002cf7d8eb6ae038cb8484604051610629929190918252602082015260400190565b60405180910390a350505050565b6106496040516020016101e1906109e8565b6040805183815282151560208201526001600160a01b0380861692908716917f32b9f192f046502437b65280a1ff8a435327a7bb3986b85db4a5e61b44e5d3b39101610629565b60405163ac4ab3fb60e01b8152336004820152602481018390527f00000000000000000000000000000000000000000000000000000000000000006001600160a01b03169063ac4ab3fb90604401602060405180830381865afa1580156106fb573d6000803e3d6000fd5b505050506040513d601f19601f8201168201806040525081019061071f9190610a0c565b61074957338160405163a35b150b60e01b8152600401610740929190610a30565b60405180910390fd5b5050565b80356001600160a01b038116811461076457600080fd5b919050565b60008060008060008060c0878903121561078257600080fd5b61078b8761074d565b95506107996020880161074d565b94506107a76040880161074d565b9350606087013592506080870135915060a087013590509295509295509295565b600080600080600060a086880312156107e057600080fd5b6107e98661074d565b94506107f76020870161074d565b94979496505050506040830135926060810135926080909101359150565b60008060006060848603121561082a57600080fd5b6108338461074d565b92506108416020850161074d565b9150604084013590509250925092565b600080600080600060a0868803121561086957600080fd5b6108728661074d565b94506108806020870161074d565b935061088e6040870161074d565b94979396509394606081013594506080013592915050565b600080600080608085870312156108bc57600080fd5b6108c58561074d565b93506108d36020860161074d565b92506108e16040860161074d565b9396929550929360600135925050565b60008060008060008060c0878903121561090a57600080fd5b6109138761074d565b95506109216020880161074d565b95989597505050506040840135936060810135936080820135935060a0909101359150565b6000806000806080858703121561095c57600080fd5b6109658561074d565b93506109736020860161074d565b93969395505050506040820135916060013590565b801515811461099657600080fd5b50565b600080600080608085870312156109af57600080fd5b6109b88561074d565b93506109c66020860161074d565b92506040850135915060608501356109dd81610988565b939692955090935050565b6020808252600a908201526921a7a72a2927a62622a960b11b604082015260600190565b600060208284031215610a1e57600080fd5b8151610a2981610988565b9392505050565b60018060a01b038316815260006020604081840152835180604085015260005b81811015610a6c57858101830151858201606001528201610a50565b506000606082860101526060601f19601f83011685010192505050939250505056fea2646970667358221220868bae9a86090205ab782569e5eac13c1ac12e82937c98ffdbc286d3e0ddb49864736f6c63430008140033",
  "linkReferences": {},
  "deployedLinkReferences": {}
}