{
  "_format": "hh-sol-artifact-1",
  "contractName": "EventEmitter",
  "sourceName": "contracts/event/EventEmitter.sol",
  "abi": [
    {
      "inputs": [
        {
          "internalType": "contract RoleStore",
          "name": "_roleStore",
          "type": "address"
        }
      ],
      "stateMutability": "nonpayable",
      "type": "constructor"
    },
    {
      "inputs": [
        {
          "internalType": "address",
          "name": "msgSender",
          "type": "address"
        },
        {
          "internalType": "string",
          "name": "role",
          "type": "string"
        }
      ],
      "name": "Unauthorized",
      "type": "error"
    },
    {
      "anonymous": false,
      "inputs": [
        {
          "indexed": true,
          "internalType": "address",
          "name": "pool",
          "type": "address"
        },
        {
          "indexed": true,
          "internalType": "address",
          "name": "borrower",
          "type": "address"
        },
        {
          "indexed": false,
          "internalType": "uint256",
          "name": "amount",
          "type": "uint256"
        },
        {
          "indexed": false,
          "internalType": "uint256",
          "name": "borrowRate",
          "type": "uint256"
        },
        {
          "indexed": false,
          "internalType": "uint256",
          "name": "collateral",
          "type": "uint256"
        },
        {
          "indexed": false,
          "internalType": "uint256",
          "name": "debtScaled",
          "type": "uint256"
        }
      ],
      "name": "Borrow",
      "type": "event"
    },
    {
      "anonymous": false,
      "inputs": [
        {
          "indexed": true,
          "internalType": "address",
          "name": "pool",
          "type": "address"
        },
        {
          "indexed": false,
          "internalType": "uint256",
          "name": "scaledUnclaimedFee",
          "type": "uint256"
        },
        {
          "indexed": false,
          "internalType": "uint256",
          "name": "liquidityIndex",
          "type": "uint256"
        },
        {
          "indexed": false,
          "internalType": "uint256",
          "name": "unclaimedFee",
          "type": "uint256"
        }
      ],
      "name": "ClaimFees",
      "type": "event"
    },
    {
      "anonymous": false,
      "inputs": [
        {
          "indexed": true,
          "internalType": "address",
          "name": "poolUsd",
          "type": "address"
        },
        {
          "indexed": true,
          "internalType": "address",
          "name": "account",
          "type": "address"
        },
        {
          "indexed": false,
          "internalType": "uint256",
          "name": "amountUsdStartClose",
          "type": "uint256"
        },
        {
          "indexed": false,
          "internalType": "uint256",
          "name": "amountUsdAfterRepayAndSellCollateral",
          "type": "uint256"
        },
        {
          "indexed": false,
          "internalType": "uint256",
          "name": "amountUsdAfterBuyCollateralAndRepay",
          "type": "uint256"
        }
      ],
      "name": "Close",
      "type": "event"
    },
    {
      "anonymous": false,
      "inputs": [
        {
          "indexed": true,
          "internalType": "address",
          "name": "pool",
          "type": "address"
        },
        {
          "indexed": true,
          "internalType": "address",
          "name": "poolUsd",
          "type": "address"
        },
        {
          "indexed": true,
          "internalType": "address",
          "name": "account",
          "type": "address"
        },
        {
          "indexed": false,
          "internalType": "uint256",
          "name": "collateral",
          "type": "uint256"
        },
        {
          "indexed": false,
          "internalType": "uint256",
          "name": "debtClosed",
          "type": "uint256"
        },
        {
          "indexed": false,
          "internalType": "uint256",
          "name": "remainUsd",
          "type": "uint256"
        },
        {
          "indexed": false,
          "internalType": "uint256",
          "name": "remainCollateral",
          "type": "uint256"
        },
        {
          "indexed": false,
          "internalType": "uint256",
          "name": "collateralUsd",
          "type": "uint256"
        },
        {
          "indexed": false,
          "internalType": "uint256",
          "name": "debtScaledUsd",
          "type": "uint256"
        }
      ],
      "name": "ClosePosition",
      "type": "event"
    },
    {
      "anonymous": false,
      "inputs": [
        {
          "indexed": true,
          "internalType": "address",
          "name": "pool",
          "type": "address"
        },
        {
          "indexed": true,
          "internalType": "address",
          "name": "depositer",
          "type": "address"
        },
        {
          "indexed": false,
          "internalType": "uint256",
          "name": "amount",
          "type": "uint256"
        },
        {
          "indexed": false,
          "internalType": "uint256",
          "name": "collateral",
          "type": "uint256"
        },
        {
          "indexed": false,
          "internalType": "uint256",
          "name": "debtScaled",
          "type": "uint256"
        }
      ],
      "name": "Deposit",
      "type": "event"
    },
    {
      "anonymous": false,
      "inputs": [
        {
          "indexed": true,
          "internalType": "address",
          "name": "liquidator",
          "type": "address"
        },
        {
          "indexed": true,
          "internalType": "address",
          "name": "account",
          "type": "address"
        },
        {
          "indexed": false,
          "internalType": "uint256",
          "name": "healthFactor",
          "type": "uint256"
        },
        {
          "indexed": false,
          "internalType": "uint256",
          "name": "healthFactorLiquidationThreshold",
          "type": "uint256"
        },
        {
          "indexed": false,
          "internalType": "uint256",
          "name": "totalCollateralUsd",
          "type": "uint256"
        },
        {
          "indexed": false,
          "internalType": "uint256",
          "name": "totalDebtUsd",
          "type": "uint256"
        }
      ],
      "name": "Liquidation",
      "type": "event"
    },
    {
      "anonymous": false,
      "inputs": [
        {
          "indexed": true,
          "internalType": "address",
          "name": "pool",
          "type": "address"
        },
        {
          "indexed": false,
          "internalType": "uint256",
          "name": "liquidityRate",
          "type": "uint256"
        },
        {
          "indexed": false,
          "internalType": "uint256",
          "name": "borrowRate",
          "type": "uint256"
        },
        {
          "indexed": false,
          "internalType": "uint256",
          "name": "liquidityIndex",
          "type": "uint256"
        },
        {
          "indexed": false,
          "internalType": "uint256",
          "name": "borrowIndex",
          "type": "uint256"
        }
      ],
      "name": "PoolUpdated",
      "type": "event"
    },
    {
      "anonymous": false,
      "inputs": [
        {
          "indexed": true,
          "internalType": "address",
          "name": "liquidator",
          "type": "address"
        },
        {
          "indexed": true,
          "internalType": "address",
          "name": "pool",
          "type": "address"
        },
        {
          "indexed": true,
          "internalType": "address",
          "name": "account",
          "type": "address"
        },
        {
          "indexed": false,
          "internalType": "uint256",
          "name": "collateral",
          "type": "uint256"
        },
        {
          "indexed": false,
          "internalType": "uint256",
          "name": "debt",
          "type": "uint256"
        },
        {
          "indexed": false,
          "internalType": "uint256",
          "name": "price",
          "type": "uint256"
        }
      ],
      "name": "PositionLiquidation",
      "type": "event"
    },
    {
      "anonymous": false,
      "inputs": [
        {
          "indexed": true,
          "internalType": "address",
          "name": "pool",
          "type": "address"
        },
        {
          "indexed": true,
          "internalType": "address",
          "name": "redeemer",
          "type": "address"
        },
        {
          "indexed": true,
          "internalType": "address",
          "name": "to",
          "type": "address"
        },
        {
          "indexed": false,
          "internalType": "uint256",
          "name": "amount",
          "type": "uint256"
        },
        {
          "indexed": false,
          "internalType": "uint256",
          "name": "collateral",
          "type": "uint256"
        },
        {
          "indexed": false,
          "internalType": "uint256",
          "name": "debtScaled",
          "type": "uint256"
        }
      ],
      "name": "Redeem",
      "type": "event"
    },
    {
      "anonymous": false,
      "inputs": [
        {
          "indexed": true,
          "internalType": "address",
          "name": "pool",
          "type": "address"
        },
        {
          "indexed": true,
          "internalType": "address",
          "name": "repayer",
          "type": "address"
        },
        {
          "indexed": false,
          "internalType": "uint256",
          "name": "amount",
          "type": "uint256"
        },
        {
          "indexed": false,
          "internalType": "bool",
          "name": "useCollateral",
          "type": "bool"
        },
        {
          "indexed": false,
          "internalType": "uint256",
          "name": "collateral",
          "type": "uint256"
        },
        {
          "indexed": false,
          "internalType": "uint256",
          "name": "debtScaled",
          "type": "uint256"
        }
      ],
      "name": "Repay",
      "type": "event"
    },
    {
      "anonymous": false,
      "inputs": [
        {
          "indexed": true,
          "internalType": "address",
          "name": "pool",
          "type": "address"
        },
        {
          "indexed": true,
          "internalType": "address",
          "name": "supplier",
          "type": "address"
        },
        {
          "indexed": true,
          "internalType": "address",
          "name": "to",
          "type": "address"
        },
        {
          "indexed": false,
          "internalType": "uint256",
          "name": "amount",
          "type": "uint256"
        }
      ],
      "name": "Supply",
      "type": "event"
    },
    {
      "anonymous": false,
      "inputs": [
        {
          "indexed": true,
          "internalType": "address",
          "name": "poolIn",
          "type": "address"
        },
        {
          "indexed": true,
          "internalType": "address",
          "name": "poolOut",
          "type": "address"
        },
        {
          "indexed": true,
          "internalType": "address",
          "name": "account",
          "type": "address"
        },
        {
          "indexed": false,
          "internalType": "uint256",
          "name": "amountIn",
          "type": "uint256"
        },
        {
          "indexed": false,
          "internalType": "uint256",
          "name": "amountOut",
          "type": "uint256"
        },
        {
          "indexed": false,
          "internalType": "uint256",
          "name": "fee",
          "type": "uint256"
        },
        {
          "indexed": false,
          "internalType": "uint256",
          "name": "collateralIn",
          "type": "uint256"
        },
        {
          "indexed": false,
          "internalType": "uint256",
          "name": "debtScaledIn",
          "type": "uint256"
        },
        {
          "indexed": false,
          "internalType": "uint256",
          "name": "collateralOut",
          "type": "uint256"
        },
        {
          "indexed": false,
          "internalType": "uint256",
          "name": "debtScaledOut",
          "type": "uint256"
        }
      ],
      "name": "Swap",
      "type": "event"
    },
    {
      "anonymous": false,
      "inputs": [
        {
          "indexed": true,
          "internalType": "address",
          "name": "pool",
          "type": "address"
        },
        {
          "indexed": true,
          "internalType": "address",
          "name": "withdrawer",
          "type": "address"
        },
        {
          "indexed": true,
          "internalType": "address",
          "name": "to",
          "type": "address"
        },
        {
          "indexed": false,
          "internalType": "uint256",
          "name": "amount",
          "type": "uint256"
        }
      ],
      "name": "Withdraw",
      "type": "event"
    },
    {
      "inputs": [
        {
          "internalType": "address",
          "name": "underlyingAsset",
          "type": "address"
        },
        {
          "internalType": "address",
          "name": "account",
          "type": "address"
        },
        {
          "internalType": "uint256",
          "name": "borrowAmount",
          "type": "uint256"
        },
        {
          "internalType": "uint256",
          "name": "borrowRate",
          "type": "uint256"
        },
        {
          "internalType": "uint256",
          "name": "collateral",
          "type": "uint256"
        },
        {
          "internalType": "uint256",
          "name": "debtScaled",
          "type": "uint256"
        }
      ],
      "name": "emitBorrow",
      "outputs": [],
      "stateMutability": "nonpayable",
      "type": "function"
    },
    {
      "inputs": [
        {
          "internalType": "address",
          "name": "underlyingAsset",
          "type": "address"
        },
        {
          "internalType": "uint256",
          "name": "scaledUnclaimedFee",
          "type": "uint256"
        },
        {
          "internalType": "uint256",
          "name": "liquidityIndex",
          "type": "uint256"
        },
        {
          "internalType": "uint256",
          "name": "unclaimedFee",
          "type": "uint256"
        }
      ],
      "name": "emitClaimFees",
      "outputs": [],
      "stateMutability": "nonpayable",
      "type": "function"
    },
    {
      "inputs": [
        {
          "internalType": "address",
          "name": "underlyingAssetUsd",
          "type": "address"
        },
        {
          "internalType": "address",
          "name": "account",
          "type": "address"
        },
        {
          "internalType": "uint256",
          "name": "amountUsdStartClose",
          "type": "uint256"
        },
        {
          "internalType": "uint256",
          "name": "amountUsdAfterRepayAndSellCollateral",
          "type": "uint256"
        },
        {
          "internalType": "uint256",
          "name": "amountUsdAfterBuyCollateralAndRepay",
          "type": "uint256"
        }
      ],
      "name": "emitClose",
      "outputs": [],
      "stateMutability": "nonpayable",
      "type": "function"
    },
    {
      "inputs": [
        {
          "internalType": "address",
          "name": "underlyingAsset",
          "type": "address"
        },
        {
          "internalType": "address",
          "name": "underlyingAssetUsd",
          "type": "address"
        },
        {
          "internalType": "address",
          "name": "account",
          "type": "address"
        },
        {
          "internalType": "uint256",
          "name": "collateralAmount",
          "type": "uint256"
        },
        {
          "internalType": "uint256",
          "name": "debtAmountClosed",
          "type": "uint256"
        },
        {
          "internalType": "uint256",
          "name": "remainAmountUsd",
          "type": "uint256"
        },
        {
          "internalType": "uint256",
          "name": "remainAmount",
          "type": "uint256"
        },
        {
          "internalType": "uint256",
          "name": "collateralUsd",
          "type": "uint256"
        },
        {
          "internalType": "uint256",
          "name": "debtScaledUsd",
          "type": "uint256"
        }
      ],
      "name": "emitClosePosition",
      "outputs": [],
      "stateMutability": "nonpayable",
      "type": "function"
    },
    {
      "inputs": [
        {
          "internalType": "address",
          "name": "underlyingAsset",
          "type": "address"
        },
        {
          "internalType": "address",
          "name": "account",
          "type": "address"
        },
        {
          "internalType": "uint256",
          "name": "depositAmount",
          "type": "uint256"
        },
        {
          "internalType": "uint256",
          "name": "collateral",
          "type": "uint256"
        },
        {
          "internalType": "uint256",
          "name": "debtScaled",
          "type": "uint256"
        }
      ],
      "name": "emitDeposit",
      "outputs": [],
      "stateMutability": "nonpayable",
      "type": "function"
    },
    {
      "inputs": [
        {
          "internalType": "address",
          "name": "liquidator",
          "type": "address"
        },
        {
          "internalType": "address",
          "name": "account",
          "type": "address"
        },
        {
          "internalType": "uint256",
          "name": "healthFactor",
          "type": "uint256"
        },
        {
          "internalType": "uint256",
          "name": "healthFactorLiquidationThreshold",
          "type": "uint256"
        },
        {
          "internalType": "uint256",
          "name": "totalCollateralUsd",
          "type": "uint256"
        },
        {
          "internalType": "uint256",
          "name": "totalDebtUsd",
          "type": "uint256"
        }
      ],
      "name": "emitLiquidation",
      "outputs": [],
      "stateMutability": "nonpayable",
      "type": "function"
    },
    {
      "inputs": [
        {
          "internalType": "address",
          "name": "underlyingAsset",
          "type": "address"
        },
        {
          "internalType": "uint256",
          "name": "liquidityRate",
          "type": "uint256"
        },
        {
          "internalType": "uint256",
          "name": "borrowRate",
          "type": "uint256"
        },
        {
          "internalType": "uint256",
          "name": "liquidityIndex",
          "type": "uint256"
        },
        {
          "internalType": "uint256",
          "name": "borrowIndex",
          "type": "uint256"
        }
      ],
      "name": "emitPoolUpdated",
      "outputs": [],
      "stateMutability": "nonpayable",
      "type": "function"
    },
    {
      "inputs": [
        {
          "internalType": "address",
          "name": "liquidator",
          "type": "address"
        },
        {
          "internalType": "address",
          "name": "underlyingAsset",
          "type": "address"
        },
        {
          "internalType": "address",
          "name": "account",
          "type": "address"
        },
        {
          "internalType": "uint256",
          "name": "collateral",
          "type": "uint256"
        },
        {
          "internalType": "uint256",
          "name": "debt",
          "type": "uint256"
        },
        {
          "internalType": "uint256",
          "name": "price",
          "type": "uint256"
        }
      ],
      "name": "emitPositionLiquidation",
      "outputs": [],
      "stateMutability": "nonpayable",
      "type": "function"
    },
    {
      "inputs": [
        {
          "internalType": "address",
          "name": "underlyingAsset",
          "type": "address"
        },
        {
          "internalType": "address",
          "name": "account",
          "type": "address"
        },
        {
          "internalType": "address",
          "name": "to",
          "type": "address"
        },
        {
          "internalType": "uint256",
          "name": "redeemAmount",
          "type": "uint256"
        },
        {
          "internalType": "uint256",
          "name": "collateral",
          "type": "uint256"
        },
        {
          "internalType": "uint256",
          "name": "debtScaled",
          "type": "uint256"
        }
      ],
      "name": "emitRedeem",
      "outputs": [],
      "stateMutability": "nonpayable",
      "type": "function"
    },
    {
      "inputs": [
        {
          "internalType": "address",
          "name": "underlyingAsset",
          "type": "address"
        },
        {
          "internalType": "address",
          "name": "repayer",
          "type": "address"
        },
        {
          "internalType": "uint256",
          "name": "repayAmount",
          "type": "uint256"
        },
        {
          "internalType": "bool",
          "name": "useCollateral",
          "type": "bool"
        },
        {
          "internalType": "uint256",
          "name": "collateral",
          "type": "uint256"
        },
        {
          "internalType": "uint256",
          "name": "debtScaled",
          "type": "uint256"
        }
      ],
      "name": "emitRepay",
      "outputs": [],
      "stateMutability": "nonpayable",
      "type": "function"
    },
    {
      "inputs": [
        {
          "internalType": "address",
          "name": "underlyingAsset",
          "type": "address"
        },
        {
          "internalType": "address",
          "name": "account",
          "type": "address"
        },
        {
          "internalType": "address",
          "name": "to",
          "type": "address"
        },
        {
          "internalType": "uint256",
          "name": "supplyAmount",
          "type": "uint256"
        }
      ],
      "name": "emitSupply",
      "outputs": [],
      "stateMutability": "nonpayable",
      "type": "function"
    },
    {
      "inputs": [
        {
          "internalType": "address",
          "name": "underlyingAssetIn",
          "type": "address"
        },
        {
          "internalType": "address",
          "name": "underlyingAssetOut",
          "type": "address"
        },
        {
          "internalType": "address",
          "name": "account",
          "type": "address"
        },
        {
          "internalType": "uint256",
          "name": "amountIn",
          "type": "uint256"
        },
        {
          "internalType": "uint256",
          "name": "amountOut",
          "type": "uint256"
        },
        {
          "internalType": "uint256",
          "name": "fee",
          "type": "uint256"
        },
        {
          "internalType": "uint256",
          "name": "collateralIn",
          "type": "uint256"
        },
        {
          "internalType": "uint256",
          "name": "debtScaledIn",
          "type": "uint256"
        },
        {
          "internalType": "uint256",
          "name": "collateralOut",
          "type": "uint256"
        },
        {
          "internalType": "uint256",
          "name": "debtScaledOut",
          "type": "uint256"
        }
      ],
      "name": "emitSwap",
      "outputs": [],
      "stateMutability": "nonpayable",
      "type": "function"
    },
    {
      "inputs": [
        {
          "internalType": "address",
          "name": "underlyingAsset",
          "type": "address"
        },
        {
          "internalType": "address",
          "name": "account",
          "type": "address"
        },
        {
          "internalType": "address",
          "name": "to",
          "type": "address"
        },
        {
          "internalType": "uint256",
          "name": "withdrawAmount",
          "type": "uint256"
        }
      ],
      "name": "emitWithdraw",
      "outputs": [],
      "stateMutability": "nonpayable",
      "type": "function"
    },
    {
      "inputs": [],
      "name": "roleStore",
      "outputs": [
        {
          "internalType": "contract RoleStore",
          "name": "",
          "type": "address"
        }
      ],
      "stateMutability": "view",
      "type": "function"
    }
  ],
  "bytecode": "0x60a060405234801561001057600080fd5b50604051610d7b380380610d7b83398101604081905261002f91610040565b6001600160a01b0316608052610070565b60006020828403121561005257600080fd5b81516001600160a01b038116811461006957600080fd5b9392505050565b608051610ce96100926000396000818161012f01526108180152610ce96000f3fe608060405234801561001057600080fd5b50600436106100ea5760003560e01c80637c24dab71161008c57806394e0dd1d1161006657806394e0dd1d146101df5780639c845792146101f2578063a250ab9a14610205578063f002e0bd1461021857600080fd5b80637c24dab7146101a65780638705dcb3146101b95780639324595b146101cc57600080fd5b80634a4a7b04116100c85780634a4a7b041461012a5780635b63816e1461016d57806366e4d17a146101805780637ba59a8b1461019357600080fd5b8063054a90c5146100ef57806325ecca9514610104578063324ac76514610117575b600080fd5b6101026100fd3660046108d5565b61022b565b005b6101026101123660046108d5565b6102d8565b610102610125366004610934565b61033b565b6101517f000000000000000000000000000000000000000000000000000000000000000081565b6040516001600160a01b03909116815260200160405180910390f35b61010261017b366004610992565b6103a6565b61010261018e3660046109f3565b61041a565b6101026101a1366004610934565b6104a8565b6101026101b4366004610a77565b610508565b6101026101c7366004610ab9565b610574565b6101026101da366004610b34565b6105fa565b6101026101ed366004610b7f565b610669565b610102610200366004610bd4565b6106d0565b610102610213366004610b34565b610734565b610102610226366004610b7f565b610795565b61027b60405160200161023d90610c0d565b604051602081830303815290604052805190602001206040518060400160405280600a81526020016921a7a72a2927a62622a960b11b8152506107fc565b60408051848152602081018490529081018290526001600160a01b0380861691878216918916907fde74dcb4b9894d99afee49abaa5b8eeece8399422c403c5128b2958f0dd61805906060015b60405180910390a4505050505050565b6102ea60405160200161023d90610c0d565b60408051848152602081018490529081018290526001600160a01b0380861691878216918916907ff7e4278e8805ee20185344a7349aaa91cdcf5f316fbf66894f614a33debd0679906060016102c8565b61034d60405160200161023d90610c0d565b60408051848152602081018490529081018290526001600160a01b0380861691908716907fb149470201600d81e1698a9d001d20f8d2a036d2c0f425436b65a154e95eb53a906060015b60405180910390a35050505050565b6103b860405160200161023d90610c0d565b604080518581528415156020820152908101839052606081018290526001600160a01b0380871691908816907f5ca7f1e42fbae6c27024a8364d7f80e1ece702fcca05b40de69e2e8cbca2fac9906080015b60405180910390a3505050505050565b61042c60405160200161023d90610c0d565b6040805188815260208101889052908101869052606081018590526080810184905260a0810183905260c081018290526001600160a01b03808a16918b8216918d16907f533855cb8a87f0995f6c3390665eb37da822f5550b13a973a77906d018a2a89c9060e00160405180910390a450505050505050505050565b6104ba60405160200161023d90610c0d565b60408051848152602081018490529081018290526001600160a01b0380861691908716907f4e2ca0515ed1aef1395f66b5303bb5d6f1bf9d61a353fa53f73f8ac9973fa9f690606001610397565b61051a60405160200161023d90610c0d565b6040805185815260208101859052908101839052606081018290526001600160a01b038616907fc320a8529b15b851aaa68519919ac344e1caceaf4f47d15df6e58181dfec63199060800160405180910390a25050505050565b61058660405160200161023d90610c0d565b6040805187815260208101879052908101859052606081018490526080810183905260a081018290526001600160a01b03808916918a8216918c16907f9adf4662bb40ef8797479e9d5cc65b922e0c2c11b765e73cc6cd89edd54b8a8b9060c00160405180910390a4505050505050505050565b61060c60405160200161023d90610c0d565b816001600160a01b0316836001600160a01b0316856001600160a01b03167f4f7857497e115bb4e8acd8d9f7382eb4c159d874838d6368099523ab6ef9f6318460405161065b91815260200190565b60405180910390a450505050565b61067b60405160200161023d90610c0d565b6040805185815260208101859052908101839052606081018290526001600160a01b0380871691908816907fc70fd1eb40d7ae44a5425c09dece5a023b47277356e005b6caef1600cfc7334e9060800161040a565b6106e260405160200161023d90610c0d565b60408051848152602081018490529081018290526001600160a01b038516907fd2e6085315c6e1c1c7406a47c7d006a8c1f931396d868c16046dea71365ff0319060600160405180910390a250505050565b61074660405160200161023d90610c0d565b816001600160a01b0316836001600160a01b0316856001600160a01b03167f3115d1449a7b732c986cba18244e897a450f61e1bb8d589cd2e69e6c8924f9f78460405161065b91815260200190565b6107a760405160200161023d90610c0d565b6040805185815260208101859052908101839052606081018290526001600160a01b0380871691908816907f9b079d2f87f543b9b06c6732ea4d73fd08f69c2f2a51dde314ad9150302af7549060800161040a565b60405163ac4ab3fb60e01b8152336004820152602481018390527f00000000000000000000000000000000000000000000000000000000000000006001600160a01b03169063ac4ab3fb90604401602060405180830381865afa158015610867573d6000803e3d6000fd5b505050506040513d601f19601f8201168201806040525081019061088b9190610c31565b6108b557338160405163a35b150b60e01b81526004016108ac929190610c55565b60405180910390fd5b5050565b80356001600160a01b03811681146108d057600080fd5b919050565b60008060008060008060c087890312156108ee57600080fd5b6108f7876108b9565b9550610905602088016108b9565b9450610913604088016108b9565b9350606087013592506080870135915060a087013590509295509295509295565b600080600080600060a0868803121561094c57600080fd5b610955866108b9565b9450610963602087016108b9565b94979496505050506040830135926060810135926080909101359150565b801515811461098f57600080fd5b50565b60008060008060008060c087890312156109ab57600080fd5b6109b4876108b9565b95506109c2602088016108b9565b94506040870135935060608701356109d981610981565b9598949750929560808101359460a0909101359350915050565b6000806000806000806000806000806101408b8d031215610a1357600080fd5b610a1c8b6108b9565b9950610a2a60208c016108b9565b9850610a3860408c016108b9565b999c989b5098996060810135995060808101359860a0820135985060c0820135975060e082013596506101008201359550610120909101359350915050565b600080600080600060a08688031215610a8f57600080fd5b610a98866108b9565b97602087013597506040870135966060810135965060800135945092505050565b60008060008060008060008060006101208a8c031215610ad857600080fd5b610ae18a6108b9565b9850610aef60208b016108b9565b9750610afd60408b016108b9565b989b979a5097986060810135985060808101359760a0820135975060c0820135965060e08201359550610100909101359350915050565b60008060008060808587031215610b4a57600080fd5b610b53856108b9565b9350610b61602086016108b9565b9250610b6f604086016108b9565b9396929550929360600135925050565b60008060008060008060c08789031215610b9857600080fd5b610ba1876108b9565b9550610baf602088016108b9565b95989597505050506040840135936060810135936080820135935060a0909101359150565b60008060008060808587031215610bea57600080fd5b610bf3856108b9565b966020860135965060408601359560600135945092505050565b6020808252600a908201526921a7a72a2927a62622a960b11b604082015260600190565b600060208284031215610c4357600080fd5b8151610c4e81610981565b9392505050565b60018060a01b038316815260006020604081840152835180604085015260005b81811015610c9157858101830151858201606001528201610c75565b506000606082860101526060601f19601f83011685010192505050939250505056fea26469706673582212203b03e36669b9c214b27184d2a4e205902cd3d3535f633c19e8b2ba24d2c5822e64736f6c63430008140033",
  "linkReferences": {},
  "deployedLinkReferences": {}
}